{
  "contractName": "TodoList",
  "abi": [
    {
      "inputs": [],
      "stateMutability": "nonpayable",
      "type": "constructor"
    },
    {
      "inputs": [],
      "name": "taskCount",
      "outputs": [
        {
          "internalType": "uint256",
          "name": "",
          "type": "uint256"
        }
      ],
      "stateMutability": "view",
      "type": "function",
      "constant": true
    },
    {
      "inputs": [
        {
          "internalType": "uint256",
          "name": "",
          "type": "uint256"
        }
      ],
      "name": "tasks",
      "outputs": [
        {
          "internalType": "uint256",
          "name": "id",
          "type": "uint256"
        },
        {
          "internalType": "string",
          "name": "title",
          "type": "string"
        },
        {
          "internalType": "string",
          "name": "content",
          "type": "string"
        },
        {
          "internalType": "bool",
          "name": "isImportant",
          "type": "bool"
        },
        {
          "internalType": "bool",
          "name": "completed",
          "type": "bool"
        }
      ],
      "stateMutability": "view",
      "type": "function",
      "constant": true
    },
    {
      "inputs": [],
      "name": "totalTaskCount",
      "outputs": [
        {
          "internalType": "uint256",
          "name": "",
          "type": "uint256"
        }
      ],
      "stateMutability": "view",
      "type": "function",
      "constant": true
    },
    {
      "inputs": [
        {
          "internalType": "string",
          "name": "_title",
          "type": "string"
        },
        {
          "internalType": "string",
          "name": "_content",
          "type": "string"
        },
        {
          "internalType": "bool",
          "name": "_isImportant",
          "type": "bool"
        }
      ],
      "name": "createTask",
      "outputs": [],
      "stateMutability": "nonpayable",
      "type": "function"
    },
    {
      "inputs": [
        {
          "internalType": "uint256",
          "name": "_taskId",
          "type": "uint256"
        },
        {
          "internalType": "string",
          "name": "_title",
          "type": "string"
        },
        {
          "internalType": "string",
          "name": "_content",
          "type": "string"
        },
        {
          "internalType": "bool",
          "name": "_isImportant",
          "type": "bool"
        },
        {
          "internalType": "bool",
          "name": "_completed",
          "type": "bool"
        }
      ],
      "name": "updateTask",
      "outputs": [],
      "stateMutability": "nonpayable",
      "type": "function"
    },
    {
      "inputs": [
        {
          "internalType": "uint256",
          "name": "_taskId",
          "type": "uint256"
        }
      ],
      "name": "deleteTask",
      "outputs": [],
      "stateMutability": "nonpayable",
      "type": "function"
    }
  ],
  "bytecode": "0x60806040526000805560006001553480156200001a57600080fd5b506200008a6040518060400160405280601681526020017f5468697320697320746865206669727374207461736b000000000000000000008152506040518060400160405280600e81526020016d14d85b5c1b194810dbdb9d195b9d60921b81525060016200009060201b60201c565b62000273565b600080549080620000a1836200020f565b909155505060018054906000620000b8836200020f565b90915550506040805160a081018252600080548083526020808401888152848601889052861515606086015260808501849052918352600281529390912082518155905180519293919262000114926001850192019062000169565b50604082015180516200013291600284019160209091019062000169565b5060608201516003909101805460809093015115156101000261ff00199215159290921661ffff1990931692909217179055505050565b828054620001779062000237565b90600052602060002090601f0160209004810192826200019b5760008555620001e6565b82601f10620001b657805160ff1916838001178555620001e6565b82800160010185558215620001e6579182015b82811115620001e6578251825591602001919060010190620001c9565b50620001f4929150620001f8565b5090565b5b80821115620001f45760008155600101620001f9565b6000600182016200023057634e487b7160e01b600052601160045260246000fd5b5060010190565b600181811c908216806200024c57607f821691505b6020821081036200026d57634e487b7160e01b600052602260045260246000fd5b50919050565b61091880620002836000396000f3fe608060405234801561001057600080fd5b50600436106100625760003560e01c806337c8b4ca14610067578063560f31921461007c57806362d0d8501461008f5780638d977672146100ab578063b6cb58a5146100cf578063e03930c9146100d8575b600080fd5b61007a6100753660046106b4565b6100eb565b005b61007a61008a366004610743565b61018b565b61009860015481565b6040519081526020015b60405180910390f35b6100be6100b9366004610743565b610295565b6040516100a29594939291906107a9565b61009860005481565b61007a6100e63660046107ee565b6103da565b6000851180156100fd57508460015410155b61010657600080fd5b6000858152600260209081526040909120855161012b926001909201918701906104ab565b5060008581526002602081815260409092208551610151939190920191908601906104ab565b5060009485526002602052604090942060030180549415156101000261ff00199215159290921661ffff1990951694909417179092555050565b60008111801561019d57508060015410155b6101a657600080fd5b6000805481526002602052604080822083835291208154815560018083018054918301916101d390610862565b6101de92919061052f565b5060028201816002019080546101f390610862565b6101fe92919061052f565b506003918201805491909201805460ff19811660ff93841615159081178355935461ffff1990911661ff0019909416939093176101009384900490921615159092021790556000805481526002602052604081208181559061026360018301826105aa565b6102716002830160006105aa565b50600301805461ffff1916905560008054908061028d836108b2565b919050555050565b600260205260009081526040902080546001820180549192916102b790610862565b80601f01602080910402602001604051908101604052809291908181526020018280546102e390610862565b80156103305780601f1061030557610100808354040283529160200191610330565b820191906000526020600020905b81548152906001019060200180831161031357829003601f168201915b50505050509080600201805461034590610862565b80601f016020809104026020016040519081016040528092919081815260200182805461037190610862565b80156103be5780601f10610393576101008083540402835291602001916103be565b820191906000526020600020905b8154815290600101906020018083116103a157829003601f168201915b5050506003909301549192505060ff8082169161010090041685565b6000805490806103e9836108c9565b9091555050600180549060006103fe836108c9565b90915550506040805160a081018252600080548083526020808401888152848601889052861515606086015260808501849052918352600281529390912082518155905180519293919261045892600185019201906104ab565b50604082015180516104749160028401916020909101906104ab565b5060608201516003909101805460809093015115156101000261ff00199215159290921661ffff1990931692909217179055505050565b8280546104b790610862565b90600052602060002090601f0160209004810192826104d9576000855561051f565b82601f106104f257805160ff191683800117855561051f565b8280016001018555821561051f579182015b8281111561051f578251825591602001919060010190610504565b5061052b9291506105e7565b5090565b82805461053b90610862565b90600052602060002090601f01602090048101928261055d576000855561051f565b82601f1061056e578054855561051f565b8280016001018555821561051f57600052602060002091601f016020900482015b8281111561051f57825482559160010191906001019061058f565b5080546105b690610862565b6000825580601f106105c6575050565b601f0160209004906000526020600020908101906105e491906105e7565b50565b5b8082111561052b57600081556001016105e8565b634e487b7160e01b600052604160045260246000fd5b600082601f83011261062357600080fd5b813567ffffffffffffffff8082111561063e5761063e6105fc565b604051601f8301601f19908116603f01168101908282118183101715610666576106666105fc565b8160405283815286602085880101111561067f57600080fd5b836020870160208301376000602085830101528094505050505092915050565b803580151581146106af57600080fd5b919050565b600080600080600060a086880312156106cc57600080fd5b85359450602086013567ffffffffffffffff808211156106eb57600080fd5b6106f789838a01610612565b9550604088013591508082111561070d57600080fd5b5061071a88828901610612565b9350506107296060870161069f565b91506107376080870161069f565b90509295509295909350565b60006020828403121561075557600080fd5b5035919050565b6000815180845260005b8181101561078257602081850181015186830182015201610766565b81811115610794576000602083870101525b50601f01601f19169290920160200192915050565b85815260a0602082015260006107c260a083018761075c565b82810360408401526107d4818761075c565b941515606084015250509015156080909101529392505050565b60008060006060848603121561080357600080fd5b833567ffffffffffffffff8082111561081b57600080fd5b61082787838801610612565b9450602086013591508082111561083d57600080fd5b5061084a86828701610612565b9250506108596040850161069f565b90509250925092565b600181811c9082168061087657607f821691505b60208210810361089657634e487b7160e01b600052602260045260246000fd5b50919050565b634e487b7160e01b600052601160045260246000fd5b6000816108c1576108c161089c565b506000190190565b6000600182016108db576108db61089c565b506001019056fea26469706673582212209952cadc93c3d595771a636cb1258113aba8aa9b24b4597bbdd5c9a18ebf091964736f6c634300080d0033",
  "immutableReferences": {},
  "source": "// SPDX-License-Identifier: MIT\npragma solidity >=0.4.22 <0.9.0;\n\ncontract TodoList {\n\n    uint public taskCount = 0;\n    uint public totalTaskCount = 0;\n\n    struct Task {\n        uint id;\n        string title;\n        string content;\n        bool isImportant;\n        bool completed;\n    }\n\n    mapping(uint => Task) public tasks;\n\n   constructor() {\n        createTask(\"This is the first task\", \"Sample Content\", true);\n    }\n\n    function createTask(\n        string memory _title,\n        string memory _content,\n        bool _isImportant\n    ) public {\n        taskCount++;\n        totalTaskCount++;\n        tasks[taskCount] = Task(\n            taskCount,\n            _title,\n            _content,\n            _isImportant,\n            false\n        );\n    }\n\n    function updateTask(\n        uint _taskId,\n        string memory _title,\n        string memory _content,\n        bool _isImportant,\n        bool _completed\n    ) public {\n        require(_taskId > 0 && totalTaskCount >= _taskId);\n\n        tasks[_taskId].title = _title;\n        tasks[_taskId].content = _content;\n        tasks[_taskId].isImportant = _isImportant;\n        tasks[_taskId].completed = _completed;\n    }\n\n    function deleteTask(uint _taskId) public {\n        require(_taskId > 0 && totalTaskCount >= _taskId);\n\n        tasks[_taskId] = tasks[taskCount];\n        delete tasks[taskCount];\n        taskCount--;\n    }\n}\n",
  "sourcePath": "D:\\Igor\\University\\Course_4\\BlockChainTechnologyAndML\\PWs\\Pw23\\eth_todo_list\\contracts\\TodoList.sol",
  "compiler": {
    "name": "solc",
    "version": "0.8.13+commit.abaa5c0e.Emscripten.clang"
  },
  "schemaVersion": "3.4.16",
  "updatedAt": "2023-11-14T18:10:38.346Z",
  "networkType": "ethereum",
  "devdoc": {
    "kind": "dev",
    "methods": {},
    "version": 1
  },
  "userdoc": {
    "kind": "user",
    "methods": {},
    "version": 1
  }
}