{
  "contractName": "TodoList",
  "abi": [
    {
      "inputs": [],
      "stateMutability": "nonpayable",
      "type": "constructor"
    },
    {
      "inputs": [],
      "name": "taskCount",
      "outputs": [
        {
          "internalType": "uint256",
          "name": "",
          "type": "uint256"
        }
      ],
      "stateMutability": "view",
      "type": "function",
      "constant": true
    },
    {
      "inputs": [
        {
          "internalType": "uint256",
          "name": "",
          "type": "uint256"
        }
      ],
      "name": "taskIndexMapping",
      "outputs": [
        {
          "internalType": "uint256",
          "name": "",
          "type": "uint256"
        }
      ],
      "stateMutability": "view",
      "type": "function",
      "constant": true
    },
    {
      "inputs": [
        {
          "internalType": "uint256",
          "name": "",
          "type": "uint256"
        }
      ],
      "name": "tasks",
      "outputs": [
        {
          "internalType": "uint256",
          "name": "id",
          "type": "uint256"
        },
        {
          "internalType": "string",
          "name": "title",
          "type": "string"
        },
        {
          "internalType": "string",
          "name": "content",
          "type": "string"
        },
        {
          "internalType": "bool",
          "name": "isImportant",
          "type": "bool"
        },
        {
          "internalType": "bool",
          "name": "completed",
          "type": "bool"
        }
      ],
      "stateMutability": "view",
      "type": "function",
      "constant": true
    },
    {
      "inputs": [],
      "name": "totalTaskCount",
      "outputs": [
        {
          "internalType": "uint256",
          "name": "",
          "type": "uint256"
        }
      ],
      "stateMutability": "view",
      "type": "function",
      "constant": true
    },
    {
      "inputs": [
        {
          "internalType": "string",
          "name": "_title",
          "type": "string"
        },
        {
          "internalType": "string",
          "name": "_content",
          "type": "string"
        },
        {
          "internalType": "bool",
          "name": "_isImportant",
          "type": "bool"
        }
      ],
      "name": "createTask",
      "outputs": [],
      "stateMutability": "nonpayable",
      "type": "function"
    },
    {
      "inputs": [
        {
          "internalType": "uint256",
          "name": "_taskId",
          "type": "uint256"
        },
        {
          "internalType": "string",
          "name": "_title",
          "type": "string"
        },
        {
          "internalType": "string",
          "name": "_content",
          "type": "string"
        },
        {
          "internalType": "bool",
          "name": "_isImportant",
          "type": "bool"
        },
        {
          "internalType": "bool",
          "name": "_completed",
          "type": "bool"
        }
      ],
      "name": "updateTask",
      "outputs": [],
      "stateMutability": "nonpayable",
      "type": "function"
    },
    {
      "inputs": [
        {
          "internalType": "uint256",
          "name": "_taskId",
          "type": "uint256"
        }
      ],
      "name": "deleteTask",
      "outputs": [],
      "stateMutability": "nonpayable",
      "type": "function"
    }
  ],
  "bytecode": "0x60806040526000805560006001553480156200001a57600080fd5b506200008a6040518060400160405280601681526020017f5468697320697320746865206669727374207461736b000000000000000000008152506040518060400160405280600e81526020016d14d85b5c1b194810dbdb9d195b9d60921b81525060016200009060201b60201c565b6200028a565b600080549080620000a18362000226565b909155505060018054906000620000b88362000226565b90915550506040805160a0810182526001805482526020808301878152838501879052851515606085015260006080850181905280548152600283529490942083518155935180519394936200011693850192919091019062000180565b50604082015180516200013491600284019160209091019062000180565b5060608201516003918201805460809094015115156101000261ff00199215159290921661ffff1990941693909317179091556000805460015482526020929092526040902055505050565b8280546200018e906200024e565b90600052602060002090601f016020900481019282620001b25760008555620001fd565b82601f10620001cd57805160ff1916838001178555620001fd565b82800160010185558215620001fd579182015b82811115620001fd578251825591602001919060010190620001e0565b506200020b9291506200020f565b5090565b5b808211156200020b576000815560010162000210565b6000600182016200024757634e487b7160e01b600052601160045260246000fd5b5060010190565b600181811c908216806200026357607f821691505b6020821081036200028457634e487b7160e01b600052602260045260246000fd5b50919050565b610996806200029a6000396000f3fe608060405234801561001057600080fd5b506004361061007d5760003560e01c80638d9776721161005b5780638d977672146100c6578063b6cb58a5146100ea578063c7e95c6e146100f3578063e03930c91461011357600080fd5b806337c8b4ca14610082578063560f31921461009757806362d0d850146100aa575b600080fd5b610095610090366004610732565b610126565b005b6100956100a53660046107c1565b6101d1565b6100b360015481565b6040519081526020015b60405180910390f35b6100d96100d43660046107c1565b6102fc565b6040516100bd959493929190610827565b6100b360005481565b6100b36101013660046107c1565b60036020526000908152604090205481565b61009561012136600461086c565b610441565b600085815260036020526040902054801580159061014657508560015410155b61014f57600080fd5b6000818152600260209081526040909120865161017492600190920191880190610529565b506000818152600260208181526040909220865161019a93919092019190870190610529565b506000908152600260205260409020600301805461ffff191692151561ff0019169290921761010091151591909102179055505050565b60008181526003602052604090205480158015906101f157508160015410155b6101fa57600080fd5b600080548152600260205260408082208383529120815481556001808301805491830191610227906108e0565b6102329291906105ad565b506002820181600201908054610247906108e0565b6102529291906105ad565b506003918201805491909201805460ff19811660ff93841615159081178355935461ffff1990911661ff001990941693909317610100938490049092161515909202179055600080548152600260205260408120818155906102b76001830182610628565b6102c5600283016000610628565b506003908101805461ffff19169055600083815260209190915260408120819055805490806102f383610930565b91905055505050565b6002602052600090815260409020805460018201805491929161031e906108e0565b80601f016020809104026020016040519081016040528092919081815260200182805461034a906108e0565b80156103975780601f1061036c57610100808354040283529160200191610397565b820191906000526020600020905b81548152906001019060200180831161037a57829003601f168201915b5050505050908060020180546103ac906108e0565b80601f01602080910402602001604051908101604052809291908181526020018280546103d8906108e0565b80156104255780601f106103fa57610100808354040283529160200191610425565b820191906000526020600020905b81548152906001019060200180831161040857829003601f168201915b5050506003909301549192505060ff8082169161010090041685565b60008054908061045083610947565b90915550506001805490600061046583610947565b90915550506040805160a0810182526001805482526020808301878152838501879052851515606085015260006080850181905280548152600283529490942083518155935180519394936104c1938501929190910190610529565b50604082015180516104dd916002840191602090910190610529565b5060608201516003918201805460809094015115156101000261ff00199215159290921661ffff1990941693909317179091556000805460015482526020929092526040902055505050565b828054610535906108e0565b90600052602060002090601f016020900481019282610557576000855561059d565b82601f1061057057805160ff191683800117855561059d565b8280016001018555821561059d579182015b8281111561059d578251825591602001919060010190610582565b506105a9929150610665565b5090565b8280546105b9906108e0565b90600052602060002090601f0160209004810192826105db576000855561059d565b82601f106105ec578054855561059d565b8280016001018555821561059d57600052602060002091601f016020900482015b8281111561059d57825482559160010191906001019061060d565b508054610634906108e0565b6000825580601f10610644575050565b601f0160209004906000526020600020908101906106629190610665565b50565b5b808211156105a95760008155600101610666565b634e487b7160e01b600052604160045260246000fd5b600082601f8301126106a157600080fd5b813567ffffffffffffffff808211156106bc576106bc61067a565b604051601f8301601f19908116603f011681019082821181831017156106e4576106e461067a565b816040528381528660208588010111156106fd57600080fd5b836020870160208301376000602085830101528094505050505092915050565b8035801515811461072d57600080fd5b919050565b600080600080600060a0868803121561074a57600080fd5b85359450602086013567ffffffffffffffff8082111561076957600080fd5b61077589838a01610690565b9550604088013591508082111561078b57600080fd5b5061079888828901610690565b9350506107a76060870161071d565b91506107b56080870161071d565b90509295509295909350565b6000602082840312156107d357600080fd5b5035919050565b6000815180845260005b81811015610800576020818501810151868301820152016107e4565b81811115610812576000602083870101525b50601f01601f19169290920160200192915050565b85815260a06020820152600061084060a08301876107da565b828103604084015261085281876107da565b941515606084015250509015156080909101529392505050565b60008060006060848603121561088157600080fd5b833567ffffffffffffffff8082111561089957600080fd5b6108a587838801610690565b945060208601359150808211156108bb57600080fd5b506108c886828701610690565b9250506108d76040850161071d565b90509250925092565b600181811c908216806108f457607f821691505b60208210810361091457634e487b7160e01b600052602260045260246000fd5b50919050565b634e487b7160e01b600052601160045260246000fd5b60008161093f5761093f61091a565b506000190190565b6000600182016109595761095961091a565b506001019056fea2646970667358221220b9f9b38391dc9451b00d3b0acf2888db08a7235d8fd6a21558299db873f3d4c464736f6c634300080d0033",
  "immutableReferences": {},
  "source": "// SPDX-License-Identifier: MIT\npragma solidity >=0.4.22 <0.9.0;\n\ncontract TodoList {\n\n    uint public taskCount = 0;\n    uint public totalTaskCount = 0;\n\n    struct Task {\n        uint id;\n        string title;\n        string content;\n        bool isImportant;\n        bool completed;\n    }\n\n    mapping(uint => Task) public tasks;\n    mapping(uint => uint) public taskIndexMapping; // Mapping from task ID to task index\n\n    constructor() {\n        createTask(\"This is the first task\", \"Sample Content\", true);\n    }\n\n    function createTask(\n        string memory _title,\n        string memory _content,\n        bool _isImportant\n    ) public {\n        taskCount++;\n        totalTaskCount++;\n        tasks[taskCount] = Task(\n            totalTaskCount,\n            _title,\n            _content,\n            _isImportant,\n            false\n        );\n        taskIndexMapping[totalTaskCount] = taskCount;\n    }\n\n    function updateTask(\n        uint _taskId,\n        string memory _title,\n        string memory _content,\n        bool _isImportant,\n        bool _completed\n    ) public {\n        uint taskIndex = taskIndexMapping[_taskId];\n        require(taskIndex > 0 && totalTaskCount >= _taskId);\n\n        tasks[taskIndex].title = _title;\n        tasks[taskIndex].content = _content;\n        tasks[taskIndex].isImportant = _isImportant;\n        tasks[taskIndex].completed = _completed;\n    }\n\n    function deleteTask(uint _taskId) public {\n        uint taskIndex = taskIndexMapping[_taskId];\n        require(taskIndex > 0 && totalTaskCount >= _taskId);\n\n        tasks[taskIndex] = tasks[taskCount];\n        delete tasks[taskCount];\n        delete taskIndexMapping[_taskId];\n        taskCount--;\n    }\n}\n",
  "sourcePath": "D:\\Igor\\University\\Course_4\\BlockChainTechnologyAndML\\PWs\\Pw23\\eth_todo_list\\contracts\\TodoList.sol",
  "compiler": {
    "name": "solc",
    "version": "0.8.13+commit.abaa5c0e.Emscripten.clang"
  },
  "schemaVersion": "3.4.16",
  "updatedAt": "2023-11-15T11:56:11.915Z",
  "networkType": "ethereum",
  "devdoc": {
    "kind": "dev",
    "methods": {},
    "version": 1
  },
  "userdoc": {
    "kind": "user",
    "methods": {},
    "version": 1
  }
}