{
  "contractName": "TodoList",
  "abi": [
    {
      "inputs": [],
      "name": "taskCount",
      "outputs": [
        {
          "internalType": "uint256",
          "name": "",
          "type": "uint256"
        }
      ],
      "stateMutability": "view",
      "type": "function",
      "constant": true
    }
  ],
  "bytecode": "0x60806040525f80553480156011575f80fd5b50607980601d5f395ff3fe6080604052348015600e575f80fd5b50600436106026575f3560e01c8063b6cb58a514602a575b5f80fd5b60315f5481565b60405190815260200160405180910390f3fea264697066735822122011c4184890df4aba4dceebb43ec7325f9c62c7e552e65cf66206d75bf96628ae64736f6c63430008150033",
  "immutableReferences": {},
  "source": "// SPDX-License-Identifier: MIT\npragma solidity >=0.4.22 <0.9.0;\n\ncontract TodoList {\n  uint public taskCount  = 0;\n}\n",
  "sourcePath": "D:\\Igor\\University\\Course_4\\BlockChainTechnologyAndML\\PWs\\Pw23\\eth_todo_list\\contracts\\TodoList.sol",
  "compiler": {
    "name": "solc",
    "version": "0.8.21+commit.d9974bed.Emscripten.clang"
  },
  "schemaVersion": "3.4.16",
  "updatedAt": "2023-11-14T08:01:09.001Z",
  "networkType": "ethereum",
  "devdoc": {
    "kind": "dev",
    "methods": {},
    "version": 1
  },
  "userdoc": {
    "kind": "user",
    "methods": {},
    "version": 1
  }
}